{
  "_format": "hh-sol-artifact-1",
  "contractName": "Crowdfunding",
  "sourceName": "contracts/Crowdfunding.sol",
  "abi": [
    {
      "inputs": [
        {
          "internalType": "uint256",
          "name": "_projectId",
          "type": "uint256"
        },
        {
          "internalType": "string",
          "name": "_projectName",
          "type": "string"
        },
        {
          "internalType": "uint256",
          "name": "_fundraisingGoal",
          "type": "uint256"
        }
      ],
      "stateMutability": "nonpayable",
      "type": "constructor"
    },
    {
      "inputs": [],
      "name": "fundProject",
      "outputs": [],
      "stateMutability": "payable",
      "type": "function"
    },
    {
      "inputs": [],
      "name": "fundraisingGoal",
      "outputs": [
        {
          "internalType": "uint256",
          "name": "",
          "type": "uint256"
        }
      ],
      "stateMutability": "view",
      "type": "function"
    },
    {
      "inputs": [],
      "name": "funds",
      "outputs": [
        {
          "internalType": "uint256",
          "name": "",
          "type": "uint256"
        }
      ],
      "stateMutability": "view",
      "type": "function"
    },
    {
      "inputs": [],
      "name": "projectId",
      "outputs": [
        {
          "internalType": "uint256",
          "name": "",
          "type": "uint256"
        }
      ],
      "stateMutability": "view",
      "type": "function"
    },
    {
      "inputs": [],
      "name": "projectName",
      "outputs": [
        {
          "internalType": "string",
          "name": "",
          "type": "string"
        }
      ],
      "stateMutability": "view",
      "type": "function"
    },
    {
      "inputs": [],
      "name": "receiver",
      "outputs": [
        {
          "internalType": "address payable",
          "name": "",
          "type": "address"
        }
      ],
      "stateMutability": "view",
      "type": "function"
    }
  ],
  "bytecode": "0x60806040523480156200001157600080fd5b5060405162000ae338038062000ae38339818101604052810190620000379190620001e9565b82600081905550816001908051906020019062000056929190620000b0565b5080600381905550600060028190555033600460006101000a81548173ffffffffffffffffffffffffffffffffffffffff021916908373ffffffffffffffffffffffffffffffffffffffff160217905550505050620003ec565b828054620000be90620002f7565b90600052602060002090601f016020900481019282620000e257600085556200012e565b82601f10620000fd57805160ff19168380011785556200012e565b828001600101855582156200012e579182015b828111156200012d57825182559160200191906001019062000110565b5b5090506200013d919062000141565b5090565b5b808211156200015c57600081600090555060010162000142565b5090565b600062000177620001718462000281565b62000258565b9050828152602081018484840111156200019057600080fd5b6200019d848285620002c1565b509392505050565b600082601f830112620001b757600080fd5b8151620001c984826020860162000160565b91505092915050565b600081519050620001e381620003d2565b92915050565b600080600060608486031215620001ff57600080fd5b60006200020f86828701620001d2565b935050602084015167ffffffffffffffff8111156200022d57600080fd5b6200023b86828701620001a5565b92505060406200024e86828701620001d2565b9150509250925092565b60006200026462000277565b90506200027282826200032d565b919050565b6000604051905090565b600067ffffffffffffffff8211156200029f576200029e62000392565b5b620002aa82620003c1565b9050602081019050919050565b6000819050919050565b60005b83811015620002e1578082015181840152602081019050620002c4565b83811115620002f1576000848401525b50505050565b600060028204905060018216806200031057607f821691505b6020821081141562000327576200032662000363565b5b50919050565b6200033882620003c1565b810181811067ffffffffffffffff821117156200035a576200035962000392565b5b80604052505050565b7f4e487b7100000000000000000000000000000000000000000000000000000000600052602260045260246000fd5b7f4e487b7100000000000000000000000000000000000000000000000000000000600052604160045260246000fd5b6000601f19601f8301169050919050565b620003dd81620002b7565b8114620003e957600080fd5b50565b6106e780620003fc6000396000f3fe6080604052600436106100555760003560e01c80633fafa1271461005a5780639a33e300146100855780639e7b08d5146100b0578063c89f2ce4146100db578063d63dc66114610106578063f7260d3e14610110575b600080fd5b34801561006657600080fd5b5061006f61013b565b60405161007c9190610476565b60405180910390f35b34801561009157600080fd5b5061009a610141565b6040516100a79190610414565b60405180910390f35b3480156100bc57600080fd5b506100c56101cf565b6040516100d29190610476565b60405180910390f35b3480156100e757600080fd5b506100f06101d5565b6040516100fd9190610476565b60405180910390f35b61010e6101db565b005b34801561011c57600080fd5b50610125610336565b60405161013291906103f9565b60405180910390f35b60005481565b6001805461014e90610572565b80601f016020809104026020016040519081016040528092919081815260200182805461017a90610572565b80156101c75780601f1061019c576101008083540402835291602001916101c7565b820191906000526020600020905b8154815290600101906020018083116101aa57829003601f168201915b505050505081565b60035481565b60025481565b600460009054906101000a900473ffffffffffffffffffffffffffffffffffffffff1673ffffffffffffffffffffffffffffffffffffffff163373ffffffffffffffffffffffffffffffffffffffff16141561026c576040517f08c379a000000000000000000000000000000000000000000000000000000000815260040161026390610456565b60405180910390fd5b600354600254106102b2576040517f08c379a00000000000000000000000000000000000000000000000000000000081526004016102a990610436565b60405180910390fd5b34600260008282546102c491906104ad565b92505081905550600460009054906101000a900473ffffffffffffffffffffffffffffffffffffffff1673ffffffffffffffffffffffffffffffffffffffff166108fc349081150290604051600060405180830381858888f19350505050158015610333573d6000803e3d6000fd5b50565b600460009054906101000a900473ffffffffffffffffffffffffffffffffffffffff1681565b61036581610503565b82525050565b600061037682610491565b610380818561049c565b935061039081856020860161053f565b61039981610602565b840191505092915050565b60006103b160248361049c565b91506103bc82610613565b604082019050919050565b60006103d460248361049c565b91506103df82610662565b604082019050919050565b6103f381610535565b82525050565b600060208201905061040e600083018461035c565b92915050565b6000602082019050818103600083015261042e818461036b565b905092915050565b6000602082019050818103600083015261044f816103a4565b9050919050565b6000602082019050818103600083015261046f816103c7565b9050919050565b600060208201905061048b60008301846103ea565b92915050565b600081519050919050565b600082825260208201905092915050565b60006104b882610535565b91506104c383610535565b9250827fffffffffffffffffffffffffffffffffffffffffffffffffffffffffffffffff038211156104f8576104f76105a4565b5b828201905092915050565b600061050e82610515565b9050919050565b600073ffffffffffffffffffffffffffffffffffffffff82169050919050565b6000819050919050565b60005b8381101561055d578082015181840152602081019050610542565b8381111561056c576000848401525b50505050565b6000600282049050600182168061058a57607f821691505b6020821081141561059e5761059d6105d3565b5b50919050565b7f4e487b7100000000000000000000000000000000000000000000000000000000600052601160045260246000fd5b7f4e487b7100000000000000000000000000000000000000000000000000000000600052602260045260246000fd5b6000601f19601f8301169050919050565b7f46756e6472616973696e6720676f616c2077617320616c72656164792072656160008201527f6368656400000000000000000000000000000000000000000000000000000000602082015250565b7f50726f6a6563742072656365697665722063616e6e6f742066756e642068696d60008201527f73656c660000000000000000000000000000000000000000000000000000000060208201525056fea2646970667358221220eb3ddbfe94f8b7e1a42dc69e7f7ab4e34620513cfeae9c437db362b95ddd4bc464736f6c63430008040033",
  "linkReferences": {},
  "deployedLinkReferences": {}
}